{
  "_format": "hh-sol-artifact-1",
  "contractName": "Day1",
  "sourceName": "contracts/day1.sol",
  "abi": [
    {
      "inputs": [],
      "stateMutability": "nonpayable",
      "type": "constructor"
    },
    {
      "inputs": [
        {
          "internalType": "uint256",
          "name": "",
          "type": "uint256"
        }
      ],
      "name": "bags",
      "outputs": [
        {
          "internalType": "uint256",
          "name": "sum",
          "type": "uint256"
        }
      ],
      "stateMutability": "view",
      "type": "function"
    },
    {
      "inputs": [],
      "name": "elfWithLargestBag",
      "outputs": [
        {
          "internalType": "uint256",
          "name": "",
          "type": "uint256"
        }
      ],
      "stateMutability": "view",
      "type": "function"
    },
    {
      "inputs": [
        {
          "internalType": "uint256",
          "name": "index",
          "type": "uint256"
        }
      ],
      "name": "getSum",
      "outputs": [
        {
          "internalType": "uint256",
          "name": "",
          "type": "uint256"
        }
      ],
      "stateMutability": "view",
      "type": "function"
    },
    {
      "inputs": [
        {
          "internalType": "uint256[]",
          "name": "rawList",
          "type": "uint256[]"
        }
      ],
      "name": "setList",
      "outputs": [],
      "stateMutability": "nonpayable",
      "type": "function"
    },
    {
      "inputs": [
        {
          "internalType": "uint256[]",
          "name": "items",
          "type": "uint256[]"
        }
      ],
      "name": "sumItems",
      "outputs": [
        {
          "internalType": "uint256",
          "name": "",
          "type": "uint256"
        }
      ],
      "stateMutability": "pure",
      "type": "function"
    }
  ],
  "bytecode": "0x6080604052600060015534801561001557600080fd5b5061070d806100256000396000f3fe608060405234801561001057600080fd5b50600436106100575760003560e01c80636dc635721461005c5780639a83957a1461007a578063dda4df4e146100aa578063e8e0ba01146100da578063fb6fef2c1461010a575b600080fd5b610064610126565b604051610071919061039f565b60405180910390f35b610094600480360381019061008f9190610553565b61020e565b6040516100a1919061039f565b60405180910390f35b6100c460048036038101906100bf919061059c565b610266565b6040516100d1919061039f565b60405180910390f35b6100f460048036038101906100ef919061059c565b610284565b604051610101919061039f565b60405180910390f35b610124600480360381019061011f9190610553565b6102a3565b005b60008060009050600080600190505b600260015461014491906105f8565b81101561020557600080600060018461015d919061062c565b815260200190815260200160002060405180604001604052908160008201548152602001600182018054806020026020016040519081016040528092919081815260200182805480156101cf57602002820191906000526020600020905b8154815260200190600101908083116101bb575b505050505081525050905082816000015111156101f157806000015192508193505b5080806101fd90610660565b915050610135565b82935050505090565b6000806000905060005b835181101561025c57838181518110610234576102336106a8565b5b60200260200101518261024791906105f8565b9150808061025490610660565b915050610218565b5080915050919050565b60006020528060005260406000206000915090508060000154905081565b6000806000838152602001908152602001600020600001549050919050565b6000805b82518110156103815760008382815181106102c5576102c46106a8565b5b6020026020010151905060008103610304576001836102e491906105f8565b925060018060008282546102f891906105f8565b9250508190555061036d565b60008084815260200190815260200160002060010181908060018154018082558091505060019003906000526020600020016000909190919091505580600080858152602001908152602001600020600001600082825461036591906105f8565b925050819055505b50808061037990610660565b9150506102a7565b505050565b6000819050919050565b61039981610386565b82525050565b60006020820190506103b46000830184610390565b92915050565b6000604051905090565b600080fd5b600080fd5b600080fd5b6000601f19601f8301169050919050565b7f4e487b7100000000000000000000000000000000000000000000000000000000600052604160045260246000fd5b61041c826103d3565b810181811067ffffffffffffffff8211171561043b5761043a6103e4565b5b80604052505050565b600061044e6103ba565b905061045a8282610413565b919050565b600067ffffffffffffffff82111561047a576104796103e4565b5b602082029050602081019050919050565b600080fd5b61049981610386565b81146104a457600080fd5b50565b6000813590506104b681610490565b92915050565b60006104cf6104ca8461045f565b610444565b905080838252602082019050602084028301858111156104f2576104f161048b565b5b835b8181101561051b578061050788826104a7565b8452602084019350506020810190506104f4565b5050509392505050565b600082601f83011261053a576105396103ce565b5b813561054a8482602086016104bc565b91505092915050565b600060208284031215610569576105686103c4565b5b600082013567ffffffffffffffff811115610587576105866103c9565b5b61059384828501610525565b91505092915050565b6000602082840312156105b2576105b16103c4565b5b60006105c0848285016104a7565b91505092915050565b7f4e487b7100000000000000000000000000000000000000000000000000000000600052601160045260246000fd5b600061060382610386565b915061060e83610386565b9250828201905080821115610626576106256105c9565b5b92915050565b600061063782610386565b915061064283610386565b925082820390508181111561065a576106596105c9565b5b92915050565b600061066b82610386565b91507fffffffffffffffffffffffffffffffffffffffffffffffffffffffffffffffff820361069d5761069c6105c9565b5b600182019050919050565b7f4e487b7100000000000000000000000000000000000000000000000000000000600052603260045260246000fdfea26469706673582212200e61dfb791feb6e7a7fe357ffc5c5333701cad047b08f9ec5ec60a4f42565c3964736f6c63430008110033",
  "linkReferences": {},
  "deployedLinkReferences": {}
}